{
  "contractName": "Crowdfunding",
  "abi": [
    {
      "inputs": [
        {
          "internalType": "string",
          "name": "name",
          "type": "string"
        },
        {
          "internalType": "uint256",
          "name": "targetAmount",
          "type": "uint256"
        },
        {
          "internalType": "uint256",
          "name": "deadline",
          "type": "uint256"
        },
        {
          "internalType": "string",
          "name": "description",
          "type": "string"
        },
        {
          "internalType": "string",
          "name": "image",
          "type": "string"
        }
      ],
      "name": "createCampaign",
      "outputs": [
        {
          "internalType": "uint256",
          "name": "",
          "type": "uint256"
        }
      ],
      "stateMutability": "nonpayable",
      "type": "function"
    },
    {
      "inputs": [
        {
          "internalType": "uint256",
          "name": "campaignId",
          "type": "uint256"
        }
      ],
      "name": "contribute",
      "outputs": [],
      "stateMutability": "payable",
      "type": "function"
    },
    {
      "inputs": [
        {
          "internalType": "uint256",
          "name": "campaignId",
          "type": "uint256"
        },
        {
          "internalType": "bool",
          "name": "support",
          "type": "bool"
        }
      ],
      "name": "vote",
      "outputs": [],
      "stateMutability": "nonpayable",
      "type": "function"
    },
    {
      "inputs": [
        {
          "internalType": "uint256",
          "name": "campaignId",
          "type": "uint256"
        }
      ],
      "name": "withdraw",
      "outputs": [],
      "stateMutability": "nonpayable",
      "type": "function"
    },
    {
      "inputs": [
        {
          "internalType": "uint256",
          "name": "campaignId",
          "type": "uint256"
        }
      ],
      "name": "refund",
      "outputs": [],
      "stateMutability": "nonpayable",
      "type": "function"
    },
    {
      "inputs": [
        {
          "internalType": "uint256",
          "name": "campaignId",
          "type": "uint256"
        },
        {
          "internalType": "address",
          "name": "contributor",
          "type": "address"
        }
      ],
      "name": "getContributions",
      "outputs": [
        {
          "internalType": "uint256",
          "name": "",
          "type": "uint256"
        }
      ],
      "stateMutability": "view",
      "type": "function"
    },
    {
      "inputs": [
        {
          "internalType": "uint256",
          "name": "campaignId",
          "type": "uint256"
        }
      ],
      "name": "getCampaign",
      "outputs": [
        {
          "internalType": "address",
          "name": "owner",
          "type": "address"
        },
        {
          "internalType": "string",
          "name": "name",
          "type": "string"
        },
        {
          "internalType": "uint256",
          "name": "targetAmount",
          "type": "uint256"
        },
        {
          "internalType": "uint256",
          "name": "deadline",
          "type": "uint256"
        },
        {
          "internalType": "string",
          "name": "description",
          "type": "string"
        },
        {
          "internalType": "string",
          "name": "image",
          "type": "string"
        },
        {
          "internalType": "uint256",
          "name": "upvotes",
          "type": "uint256"
        },
        {
          "internalType": "uint256",
          "name": "downvotes",
          "type": "uint256"
        },
        {
          "internalType": "uint256",
          "name": "balance",
          "type": "uint256"
        }
      ],
      "stateMutability": "view",
      "type": "function"
    },
    {
      "inputs": [],
      "name": "getAllCampaigns",
      "outputs": [
        {
          "components": [
            {
              "internalType": "string",
              "name": "name",
              "type": "string"
            },
            {
              "internalType": "uint256",
              "name": "targetAmount",
              "type": "uint256"
            },
            {
              "internalType": "uint256",
              "name": "deadline",
              "type": "uint256"
            },
            {
              "internalType": "string",
              "name": "description",
              "type": "string"
            },
            {
              "internalType": "string",
              "name": "image",
              "type": "string"
            },
            {
              "internalType": "uint256",
              "name": "upvotes",
              "type": "uint256"
            },
            {
              "internalType": "uint256",
              "name": "downvotes",
              "type": "uint256"
            },
            {
              "internalType": "uint256",
              "name": "balance",
              "type": "uint256"
            },
            {
              "internalType": "address",
              "name": "owner",
              "type": "address"
            }
          ],
          "internalType": "struct Crowdfunding.CampaignData[]",
          "name": "",
          "type": "tuple[]"
        }
      ],
      "stateMutability": "view",
      "type": "function"
    }
  ],
  "bytecode": "0x60806040526001805534801561001457600080fd5b50611e2b806100246000396000f3fe60806040526004361061007b5760003560e01c806386cdf6041161004e57806386cdf60414610154578063aafc92d61461017f578063c1cbbca7146101bc578063c9d27afe146101d85761007b565b8063278ecde1146100805780632e1a7d4d146100a95780634b2aafcc146100d25780635598f8cc1461010f575b600080fd5b34801561008c57600080fd5b506100a760048036038101906100a29190610fd8565b610201565b005b3480156100b557600080fd5b506100d060048036038101906100cb9190610fd8565b610420565b005b3480156100de57600080fd5b506100f960048036038101906100f4919061114b565b610603565b6040516101069190611229565b60405180910390f35b34801561011b57600080fd5b5061013660048036038101906101319190610fd8565b6106d9565b60405161014b99989796959493929190611304565b60405180910390f35b34801561016057600080fd5b5061016961090b565b60405161017691906115a3565b60405180910390f35b34801561018b57600080fd5b506101a660048036038101906101a191906115f1565b610c17565b6040516101b39190611229565b60405180910390f35b6101d660048036038101906101d19190610fd8565b610c79565b005b3480156101e457600080fd5b506101ff60048036038101906101fa9190611669565b610da2565b005b60008060008381526020019081526020016000209050428160020154111561025e576040517f08c379a0000000000000000000000000000000000000000000000000000000008152600401610255906116f5565b60405180910390fd5b80600101548160070154106102a8576040517f08c379a000000000000000000000000000000000000000000000000000000000815260040161029f90611761565b60405180910390fd5b60008160090160003373ffffffffffffffffffffffffffffffffffffffff1673ffffffffffffffffffffffffffffffffffffffff168152602001908152602001600020541161032c576040517f08c379a0000000000000000000000000000000000000000000000000000000008152600401610323906117cd565b60405180910390fd5b60008160090160003373ffffffffffffffffffffffffffffffffffffffff1673ffffffffffffffffffffffffffffffffffffffff16815260200190815260200160002054905060008260090160003373ffffffffffffffffffffffffffffffffffffffff1673ffffffffffffffffffffffffffffffffffffffff16815260200190815260200160002081905550808260070160008282546103cd919061181c565b925050819055503373ffffffffffffffffffffffffffffffffffffffff166108fc829081150290604051600060405180830381858888f1935050505015801561041a573d6000803e3d6000fd5b50505050565b600080600083815260200190815260200160002090508060080160009054906101000a900473ffffffffffffffffffffffffffffffffffffffff1673ffffffffffffffffffffffffffffffffffffffff163373ffffffffffffffffffffffffffffffffffffffff16146104c8576040517f08c379a00000000000000000000000000000000000000000000000000000000081526004016104bf9061189c565b60405180910390fd5b428160020154111561050f576040517f08c379a0000000000000000000000000000000000000000000000000000000008152600401610506906116f5565b60405180910390fd5b80600101548160070154101561055a576040517f08c379a000000000000000000000000000000000000000000000000000000000815260040161055190611908565b60405180910390fd5b80600601548160050154116105a4576040517f08c379a000000000000000000000000000000000000000000000000000000000815260040161059b90611974565b60405180910390fd5b600081600701549050600082600701819055503373ffffffffffffffffffffffffffffffffffffffff166108fc829081150290604051600060405180830381858888f193505050501580156105fd573d6000803e3d6000fd5b50505050565b600080600080600154815260200190815260200160002090508681600001908161062d9190611ba0565b50858160010181905550848160020181905550838160030190816106519190611ba0565b50828160040190816106639190611ba0565b50338160080160006101000a81548173ffffffffffffffffffffffffffffffffffffffff021916908373ffffffffffffffffffffffffffffffffffffffff160217905550600160008154809291906106ba90611c72565b9190505550600180546106cd919061181c565b91505095945050505050565b600060606000806060806000806000806000808c815260200190815260200160002090508060080160009054906101000a900473ffffffffffffffffffffffffffffffffffffffff1681600001826001015483600201548460030185600401866005015487600601548860070154878054610753906119c3565b80601f016020809104026020016040519081016040528092919081815260200182805461077f906119c3565b80156107cc5780601f106107a1576101008083540402835291602001916107cc565b820191906000526020600020905b8154815290600101906020018083116107af57829003601f168201915b505050505097508480546107df906119c3565b80601f016020809104026020016040519081016040528092919081815260200182805461080b906119c3565b80156108585780601f1061082d57610100808354040283529160200191610858565b820191906000526020600020905b81548152906001019060200180831161083b57829003601f168201915b5050505050945083805461086b906119c3565b80601f0160208091040260200160405190810160405280929190818152602001828054610897906119c3565b80156108e45780601f106108b9576101008083540402835291602001916108e4565b820191906000526020600020905b8154815290600101906020018083116108c757829003601f168201915b50505050509350995099509950995099509950995099509950509193959799909294969850565b606060006001805461091d919061181c565b67ffffffffffffffff81111561093657610935611020565b5b60405190808252806020026020018201604052801561096f57816020015b61095c610f2c565b8152602001906001900390816109545790505b5090506000600190505b600154811015610c0f576000806000838152602001908152602001600020905060006040518061012001604052808360000180546109b6906119c3565b80601f01602080910402602001604051908101604052809291908181526020018280546109e2906119c3565b8015610a2f5780601f10610a0457610100808354040283529160200191610a2f565b820191906000526020600020905b815481529060010190602001808311610a1257829003601f168201915b505050505081526020018360010154815260200183600201548152602001836003018054610a5c906119c3565b80601f0160208091040260200160405190810160405280929190818152602001828054610a88906119c3565b8015610ad55780601f10610aaa57610100808354040283529160200191610ad5565b820191906000526020600020905b815481529060010190602001808311610ab857829003601f168201915b50505050508152602001836004018054610aee906119c3565b80601f0160208091040260200160405190810160405280929190818152602001828054610b1a906119c3565b8015610b675780601f10610b3c57610100808354040283529160200191610b67565b820191906000526020600020905b815481529060010190602001808311610b4a57829003601f168201915b505050505081526020018360050154815260200183600601548152602001836007015481526020018360080160009054906101000a900473ffffffffffffffffffffffffffffffffffffffff1673ffffffffffffffffffffffffffffffffffffffff1681525090508084600185610bde919061181c565b81518110610bef57610bee611cba565b5b602002602001018190525050508080610c0790611c72565b915050610979565b508091505090565b60008060008085815260200190815260200160002090508060090160008473ffffffffffffffffffffffffffffffffffffffff1673ffffffffffffffffffffffffffffffffffffffff1681526020019081526020016000205491505092915050565b6000806000838152602001908152602001600020905042816002015411610cd5576040517f08c379a0000000000000000000000000000000000000000000000000000000008152600401610ccc90611d35565b60405180910390fd5b8060010154348260070154610cea9190611d55565b1115610d2b576040517f08c379a0000000000000000000000000000000000000000000000000000000008152600401610d2290611761565b60405180910390fd5b348160090160003373ffffffffffffffffffffffffffffffffffffffff1673ffffffffffffffffffffffffffffffffffffffff1681526020019081526020016000206000828254610d7c9190611d55565b9250508190555034816007016000828254610d979190611d55565b925050819055505050565b6000806000848152602001908152602001600020905042816002015411610dfe576040517f08c379a0000000000000000000000000000000000000000000000000000000008152600401610df590611d35565b60405180910390fd5b80600a0160003373ffffffffffffffffffffffffffffffffffffffff1673ffffffffffffffffffffffffffffffffffffffff16815260200190815260200160002060009054906101000a900460ff1615610e8d576040517f08c379a0000000000000000000000000000000000000000000000000000000008152600401610e8490611dd5565b60405180910390fd5b8115610eb257806005016000815480929190610ea890611c72565b9190505550610ecd565b806006016000815480929190610ec790611c72565b91905055505b600181600a0160003373ffffffffffffffffffffffffffffffffffffffff1673ffffffffffffffffffffffffffffffffffffffff16815260200190815260200160002060006101000a81548160ff021916908315150217905550505050565b6040518061012001604052806060815260200160008152602001600081526020016060815260200160608152602001600081526020016000815260200160008152602001600073ffffffffffffffffffffffffffffffffffffffff1681525090565b6000604051905090565b600080fd5b600080fd5b6000819050919050565b610fb581610fa2565b8114610fc057600080fd5b50565b600081359050610fd281610fac565b92915050565b600060208284031215610fee57610fed610f98565b5b6000610ffc84828501610fc3565b91505092915050565b600080fd5b600080fd5b6000601f19601f8301169050919050565b7f4e487b7100000000000000000000000000000000000000000000000000000000600052604160045260246000fd5b6110588261100f565b810181811067ffffffffffffffff8211171561107757611076611020565b5b80604052505050565b600061108a610f8e565b9050611096828261104f565b919050565b600067ffffffffffffffff8211156110b6576110b5611020565b5b6110bf8261100f565b9050602081019050919050565b82818337600083830152505050565b60006110ee6110e98461109b565b611080565b90508281526020810184848401111561110a5761110961100a565b5b6111158482856110cc565b509392505050565b600082601f83011261113257611131611005565b5b81356111428482602086016110db565b91505092915050565b600080600080600060a0868803121561116757611166610f98565b5b600086013567ffffffffffffffff81111561118557611184610f9d565b5b6111918882890161111d565b95505060206111a288828901610fc3565b94505060406111b388828901610fc3565b935050606086013567ffffffffffffffff8111156111d4576111d3610f9d565b5b6111e08882890161111d565b925050608086013567ffffffffffffffff81111561120157611200610f9d565b5b61120d8882890161111d565b9150509295509295909350565b61122381610fa2565b82525050565b600060208201905061123e600083018461121a565b92915050565b600073ffffffffffffffffffffffffffffffffffffffff82169050919050565b600061126f82611244565b9050919050565b61127f81611264565b82525050565b600081519050919050565b600082825260208201905092915050565b60005b838110156112bf5780820151818401526020810190506112a4565b60008484015250505050565b60006112d682611285565b6112e08185611290565b93506112f08185602086016112a1565b6112f98161100f565b840191505092915050565b60006101208201905061131a600083018c611276565b818103602083015261132c818b6112cb565b905061133b604083018a61121a565b611348606083018961121a565b818103608083015261135a81886112cb565b905081810360a083015261136e81876112cb565b905061137d60c083018661121a565b61138a60e083018561121a565b61139861010083018461121a565b9a9950505050505050505050565b600081519050919050565b600082825260208201905092915050565b6000819050602082019050919050565b600082825260208201905092915050565b60006113ee82611285565b6113f881856113d2565b93506114088185602086016112a1565b6114118161100f565b840191505092915050565b61142581610fa2565b82525050565b61143481611264565b82525050565b600061012083016000830151848203600086015261145882826113e3565b915050602083015161146d602086018261141c565b506040830151611480604086018261141c565b506060830151848203606086015261149882826113e3565b915050608083015184820360808601526114b282826113e3565b91505060a08301516114c760a086018261141c565b5060c08301516114da60c086018261141c565b5060e08301516114ed60e086018261141c565b5061010083015161150261010086018261142b565b508091505092915050565b6000611519838361143a565b905092915050565b6000602082019050919050565b6000611539826113a6565b61154381856113b1565b935083602082028501611555856113c2565b8060005b858110156115915784840389528151611572858261150d565b945061157d83611521565b925060208a01995050600181019050611559565b50829750879550505050505092915050565b600060208201905081810360008301526115bd818461152e565b905092915050565b6115ce81611264565b81146115d957600080fd5b50565b6000813590506115eb816115c5565b92915050565b6000806040838503121561160857611607610f98565b5b600061161685828601610fc3565b9250506020611627858286016115dc565b9150509250929050565b60008115159050919050565b61164681611631565b811461165157600080fd5b50565b6000813590506116638161163d565b92915050565b600080604083850312156116805761167f610f98565b5b600061168e85828601610fc3565b925050602061169f85828601611654565b9150509250929050565b7f43616d706169676e20646561646c696e65206e6f742072656163686564000000600082015250565b60006116df601d83611290565b91506116ea826116a9565b602082019050919050565b6000602082019050818103600083015261170e816116d2565b9050919050565b7f54617267657420616d6f756e7420726561636865640000000000000000000000600082015250565b600061174b601583611290565b915061175682611715565b602082019050919050565b6000602082019050818103600083015261177a8161173e565b9050919050565b7f4e6f20636f6e747269627574696f6e20666f756e640000000000000000000000600082015250565b60006117b7601583611290565b91506117c282611781565b602082019050919050565b600060208201905081810360008301526117e6816117aa565b9050919050565b7f4e487b7100000000000000000000000000000000000000000000000000000000600052601160045260246000fd5b600061182782610fa2565b915061183283610fa2565b925082820390508181111561184a576118496117ed565b5b92915050565b7f4e6f7420746865206f776e6572206f66207468652063616d706169676e000000600082015250565b6000611886601d83611290565b915061189182611850565b602082019050919050565b600060208201905081810360008301526118b581611879565b9050919050565b7f54617267657420616d6f756e74206e6f74207265616368656400000000000000600082015250565b60006118f2601983611290565b91506118fd826118bc565b602082019050919050565b60006020820190508181036000830152611921816118e5565b9050919050565b7f43616d706169676e206e6f7420617070726f7665640000000000000000000000600082015250565b600061195e601583611290565b915061196982611928565b602082019050919050565b6000602082019050818103600083015261198d81611951565b9050919050565b7f4e487b7100000000000000000000000000000000000000000000000000000000600052602260045260246000fd5b600060028204905060018216806119db57607f821691505b6020821081036119ee576119ed611994565b5b50919050565b60008190508160005260206000209050919050565b60006020601f8301049050919050565b600082821b905092915050565b600060088302611a567fffffffffffffffffffffffffffffffffffffffffffffffffffffffffffffffff82611a19565b611a608683611a19565b95508019841693508086168417925050509392505050565b6000819050919050565b6000611a9d611a98611a9384610fa2565b611a78565b610fa2565b9050919050565b6000819050919050565b611ab783611a82565b611acb611ac382611aa4565b848454611a26565b825550505050565b600090565b611ae0611ad3565b611aeb818484611aae565b505050565b5b81811015611b0f57611b04600082611ad8565b600181019050611af1565b5050565b601f821115611b5457611b25816119f4565b611b2e84611a09565b81016020851015611b3d578190505b611b51611b4985611a09565b830182611af0565b50505b505050565b600082821c905092915050565b6000611b7760001984600802611b59565b1980831691505092915050565b6000611b908383611b66565b9150826002028217905092915050565b611ba982611285565b67ffffffffffffffff811115611bc257611bc1611020565b5b611bcc82546119c3565b611bd7828285611b13565b600060209050601f831160018114611c0a5760008415611bf8578287015190505b611c028582611b84565b865550611c6a565b601f198416611c18866119f4565b60005b82811015611c4057848901518255600182019150602085019450602081019050611c1b565b86831015611c5d5784890151611c59601f891682611b66565b8355505b6001600288020188555050505b505050505050565b6000611c7d82610fa2565b91507fffffffffffffffffffffffffffffffffffffffffffffffffffffffffffffffff8203611caf57611cae6117ed565b5b600182019050919050565b7f4e487b7100000000000000000000000000000000000000000000000000000000600052603260045260246000fd5b7f43616d706169676e20646561646c696e65206861732070617373656400000000600082015250565b6000611d1f601c83611290565b9150611d2a82611ce9565b602082019050919050565b60006020820190508181036000830152611d4e81611d12565b9050919050565b6000611d6082610fa2565b9150611d6b83610fa2565b9250828201905080821115611d8357611d826117ed565b5b92915050565b7f416c726561647920766f74656400000000000000000000000000000000000000600082015250565b6000611dbf600d83611290565b9150611dca82611d89565b602082019050919050565b60006020820190508181036000830152611dee81611db2565b905091905056fea2646970667358221220046d9b16a47d13c1843bdf171dce53d52fe5ccf95481da1e6630832fd0f88c2c64736f6c63430008130033",
  "immutableReferences": {},
  "source": "// SPDX-License-Identifier: MIT\npragma solidity 0.8.19;\n\n\ncontract Crowdfunding {\n    struct Campaign {\n        string name;\n        uint256 targetAmount;\n        uint256 deadline;\n        string description;\n        string image;\n        uint256 upvotes;\n        uint256 downvotes;\n        uint256 balance;\n        address owner;\n        mapping(address => uint256) contributions;\n        mapping(address => bool) voted;\n    }\n\nstruct CampaignData {\n    string name;\n    uint256 targetAmount;\n    uint256 deadline;\n    string description;\n    string image;\n    uint256 upvotes;\n    uint256 downvotes;\n    uint256 balance;\n    address owner;\n}\n    mapping(uint256 => Campaign) campaigns;\n    uint256 nextCampaignId = 1; \n\n\n    function createCampaign(\n        string memory name,\n        uint256 targetAmount,\n        uint256 deadline,\n        string memory description,\n        string memory image\n    ) public returns (uint256) {\n        Campaign storage campaign = campaigns[nextCampaignId];\n        campaign.name = name;\n        campaign.targetAmount = targetAmount;\n        campaign.deadline = deadline;\n        campaign.description = description;\n        campaign.image = image;\n        campaign.owner = msg.sender;\n\n        nextCampaignId++;\n\n        return nextCampaignId - 1;\n    }\n\n    function contribute(uint256 campaignId) public payable {\n        Campaign storage campaign = campaigns[campaignId];\n        require(\n            campaign.deadline > block.timestamp,\n            \"Campaign deadline has passed\"\n        );\n        require(\n            campaign.balance + msg.value <= campaign.targetAmount,\n            \"Target amount reached\"\n        );\n\n        campaign.contributions[msg.sender] += msg.value;\n        campaign.balance += msg.value;\n    }\n\n    function vote(uint256 campaignId, bool support) public {\n        Campaign storage campaign = campaigns[campaignId];\n        require(\n            campaign.deadline > block.timestamp,\n            \"Campaign deadline has passed\"\n        );\n        require(!campaign.voted[msg.sender], \"Already voted\");\n\n        if (support) {\n            campaign.upvotes++;\n        } else {\n            campaign.downvotes++;\n        }\n\n        campaign.voted[msg.sender] = true;\n    }\n\n    function withdraw(uint256 campaignId) public {\n        Campaign storage campaign = campaigns[campaignId];\n\n        require(msg.sender == campaign.owner,\n         \"Not the owner of the campaign\");\n        require(\n            campaign.deadline <= block.timestamp,\n            \"Campaign deadline not reached\"\n        );\n        require(\n            campaign.balance >= campaign.targetAmount,\n            \"Target amount not reached\"\n        );\n        require(campaign.upvotes > campaign.downvotes, \"Campaign not approved\");\n\n        uint256 amount = campaign.balance;\n        campaign.balance = 0;\n\n        payable(msg.sender).transfer(amount);\n    }\n\n    function refund(uint256 campaignId) public {\n        Campaign storage campaign = campaigns[campaignId];\n        require(\n            campaign.deadline <= block.timestamp,\n            \"Campaign deadline not reached\"\n        );\n        require(\n            campaign.balance < campaign.targetAmount,\n            \"Target amount reached\"\n        );\n        require(\n            campaign.contributions[msg.sender] > 0,\n            \"No contribution found\"\n        );\n\n        uint256 amount = campaign.contributions[msg.sender];\n        campaign.contributions[msg.sender] = 0;\n        campaign.balance -= amount;\n        payable(msg.sender).transfer(amount);\n    }\n\n    function getContributions(uint256 campaignId, address contributor)\n        public\n        view\n        returns (uint256)\n    {\n        Campaign storage campaign = campaigns[campaignId];\n        return campaign.contributions[contributor];\n    }\n\n    function getCampaign(uint256 campaignId)\n        public\n        view\n        returns (\n            address owner,\n            string memory name,\n            uint256 targetAmount,\n            uint256 deadline,\n            string memory description,\n            string memory image,\n            uint256 upvotes,\n            uint256 downvotes,\n            uint256 balance\n        )\n    {\n        Campaign storage campaign = campaigns[campaignId];\n        return (\n            campaign.owner,\n            campaign.name,\n            campaign.targetAmount,\n            campaign.deadline,\n            campaign.description,\n            campaign.image,\n            campaign.upvotes,\n            campaign.downvotes,\n            campaign.balance\n        );\n    }\n    \n    function getAllCampaigns() public view returns (CampaignData[] memory) {\n    CampaignData[] memory campaignsData = new CampaignData[](nextCampaignId-1);\n    for (uint256 i = 1; i < nextCampaignId; i++) {\n        Campaign storage campaign = campaigns[i];\n        CampaignData memory data = CampaignData({\n            name: campaign.name,\n            targetAmount: campaign.targetAmount,\n            deadline: campaign.deadline,\n            description: campaign.description,\n            image: campaign.image,\n            upvotes: campaign.upvotes,\n            downvotes: campaign.downvotes,\n            balance: campaign.balance,\n            owner: campaign.owner\n        });\n        campaignsData[i-1] = data;\n    }\n    return campaignsData;\n}\n\n\n\n}\n",
  "sourcePath": "C:\\Projects\\Crowdfunding dapp\\truffle\\contracts\\Crowdfund.sol",
  "compiler": {
    "name": "solc",
    "version": "0.8.19+commit.7dd6d404.Emscripten.clang"
  },
  "schemaVersion": "3.4.13",
  "updatedAt": "2023-07-12T06:07:10.186Z",
  "devdoc": {
    "kind": "dev",
    "methods": {},
    "version": 1
  },
  "userdoc": {
    "kind": "user",
    "methods": {},
    "version": 1
  }
}